{
  "contractName": "Voters",
  "abi": [
    {
      "constant": true,
      "inputs": [],
      "name": "voterCount",
      "outputs": [
        {
          "name": "",
          "type": "uint256"
        }
      ],
      "payable": false,
      "stateMutability": "view",
      "type": "function"
    },
    {
      "constant": true,
      "inputs": [
        {
          "name": "",
          "type": "uint256"
        }
      ],
      "name": "voters",
      "outputs": [
        {
          "name": "name",
          "type": "string"
        },
        {
          "name": "age",
          "type": "uint256"
        },
        {
          "name": "gender",
          "type": "string"
        },
        {
          "name": "ipfsProfile",
          "type": "string"
        },
        {
          "name": "ipfsAge",
          "type": "string"
        },
        {
          "name": "ipfsAdress",
          "type": "string"
        }
      ],
      "payable": false,
      "stateMutability": "view",
      "type": "function"
    },
    {
      "inputs": [],
      "payable": false,
      "stateMutability": "nonpayable",
      "type": "constructor"
    },
    {
      "constant": false,
      "inputs": [
        {
          "name": "_name",
          "type": "string"
        },
        {
          "name": "_age",
          "type": "uint256"
        },
        {
          "name": "_gender",
          "type": "string"
        },
        {
          "name": "_ipfsAddress",
          "type": "string"
        },
        {
          "name": "_ipfsAge",
          "type": "string"
        },
        {
          "name": "_ipfsProfile",
          "type": "string"
        }
      ],
      "name": "addVoter",
      "outputs": [],
      "payable": false,
      "stateMutability": "nonpayable",
      "type": "function"
    }
  ],
  "bytecode": "0x608060405234801561001057600080fd5b506101386040805190810160405280600181526020017f630000000000000000000000000000000000000000000000000000000000000081525060036040805190810160405280600181526020017f64000000000000000000000000000000000000000000000000000000000000008152506040805190810160405280600181526020017f61000000000000000000000000000000000000000000000000000000000000008152506040805190810160405280600181526020017f66000000000000000000000000000000000000000000000000000000000000008152506040805190810160405280600181526020017f670000000000000000000000000000000000000000000000000000000000000081525061013d640100000000026401000000009004565b6102dd565b60036000815480929190600101919050555060c0604051908101604052808781526020018681526020018581526020018481526020018381526020018281525060046000600354815260200190815260200160002060008201518160000190805190602001906101ae929190610238565b506020820151816001015560408201518160020190805190602001906101d5929190610238565b5060608201518160030190805190602001906101f2929190610238565b50608082015181600401908051906020019061020f929190610238565b5060a082015181600501908051906020019061022c929190610238565b50905050505050505050565b828054600181600116156101000203166002900490600052602060002090601f016020900481019282601f1061027957805160ff19168380011785556102a7565b828001600101855582156102a7579182015b828111156102a657825182559160200191906001019061028b565b5b5090506102b491906102b8565b5090565b6102da91905b808211156102d65760008160009055506001016102be565b5090565b90565b610975806102ec6000396000f300608060405260043610610057576000357c0100000000000000000000000000000000000000000000000000000000900463ffffffff16806342169e481461005c578063da58c7d914610087578063fa850f2b146102e4575b600080fd5b34801561006857600080fd5b5061007161046f565b6040518082815260200191505060405180910390f35b34801561009357600080fd5b506100b260048036038101908080359060200190929190505050610475565b60405180806020018781526020018060200180602001806020018060200186810386528c818151815260200191508051906020019080838360005b838110156101085780820151818401526020810190506100ed565b50505050905090810190601f1680156101355780820380516001836020036101000a031916815260200191505b5086810385528a818151815260200191508051906020019080838360005b8381101561016e578082015181840152602081019050610153565b50505050905090810190601f16801561019b5780820380516001836020036101000a031916815260200191505b50868103845289818151815260200191508051906020019080838360005b838110156101d45780820151818401526020810190506101b9565b50505050905090810190601f1680156102015780820380516001836020036101000a031916815260200191505b50868103835288818151815260200191508051906020019080838360005b8381101561023a57808201518184015260208101905061021f565b50505050905090810190601f1680156102675780820380516001836020036101000a031916815260200191505b50868103825287818151815260200191508051906020019080838360005b838110156102a0578082015181840152602081019050610285565b50505050905090810190601f1680156102cd5780820380516001836020036101000a031916815260200191505b509b50505050505050505050505060405180910390f35b3480156102f057600080fd5b5061046d600480360381019080803590602001908201803590602001908080601f016020809104026020016040519081016040528093929190818152602001838380828437820191505050505050919291929080359060200190929190803590602001908201803590602001908080601f0160208091040260200160405190810160405280939291908181526020018383808284378201915050505050509192919290803590602001908201803590602001908080601f0160208091040260200160405190810160405280939291908181526020018383808284378201915050505050509192919290803590602001908201803590602001908080601f0160208091040260200160405190810160405280939291908181526020018383808284378201915050505050509192919290803590602001908201803590602001908080601f01602080910402602001604051908101604052809392919081815260200183838082843782019150505050505091929192905050506107a9565b005b60035481565b6004602052806000526040600020600091509050806000018054600181600116156101000203166002900480601f0160208091040260200160405190810160405280929190818152602001828054600181600116156101000203166002900480156105215780601f106104f657610100808354040283529160200191610521565b820191906000526020600020905b81548152906001019060200180831161050457829003601f168201915b505050505090806001015490806002018054600181600116156101000203166002900480601f0160208091040260200160405190810160405280929190818152602001828054600181600116156101000203166002900480156105c55780601f1061059a576101008083540402835291602001916105c5565b820191906000526020600020905b8154815290600101906020018083116105a857829003601f168201915b505050505090806003018054600181600116156101000203166002900480601f0160208091040260200160405190810160405280929190818152602001828054600181600116156101000203166002900480156106635780601f1061063857610100808354040283529160200191610663565b820191906000526020600020905b81548152906001019060200180831161064657829003601f168201915b505050505090806004018054600181600116156101000203166002900480601f0160208091040260200160405190810160405280929190818152602001828054600181600116156101000203166002900480156107015780601f106106d657610100808354040283529160200191610701565b820191906000526020600020905b8154815290600101906020018083116106e457829003601f168201915b505050505090806005018054600181600116156101000203166002900480601f01602080910402602001604051908101604052809291908181526020018280546001816001161561010002031660029004801561079f5780601f106107745761010080835404028352916020019161079f565b820191906000526020600020905b81548152906001019060200180831161078257829003601f168201915b5050505050905086565b60036000815480929190600101919050555060c06040519081016040528087815260200186815260200185815260200184815260200183815260200182815250600460006003548152602001908152602001600020600082015181600001908051906020019061081a9291906108a4565b506020820151816001015560408201518160020190805190602001906108419291906108a4565b50606082015181600301908051906020019061085e9291906108a4565b50608082015181600401908051906020019061087b9291906108a4565b5060a08201518160050190805190602001906108989291906108a4565b50905050505050505050565b828054600181600116156101000203166002900490600052602060002090601f016020900481019282601f106108e557805160ff1916838001178555610913565b82800160010185558215610913579182015b828111156109125782518255916020019190600101906108f7565b5b5090506109209190610924565b5090565b61094691905b8082111561094257600081600090555060010161092a565b5090565b905600a165627a7a7230582079d9462cc116b1ad0c23f6d45781fd3cc9130b6794a9d8247eea6937133fba010029",
  "source": "pragma solidity ^0.4.20;\n\ncontract Voters {\n    // Model a Candidate\n    struct Voter1{\n        string name;\n        uint age;\n        string gender;\n        string ipfsProfile;\n        string ipfsAge;\n        string ipfsAdress; \n        }\n\n    string ipfsProfile;\n    string ipfsAge;\n    string ipfsAdress; \n    uint public voterCount; \n    mapping(uint => Voter1) public voters;\n    constructor() public{\n        addVoter(\"c\",3,\"d\",\"a\",\"f\",\"g\");\n    }\n\n    function addVoter(string _name,uint _age,string _gender,string _ipfsAddress,string _ipfsAge,string _ipfsProfile) public{\n        voterCount++;\n        voters[voterCount]=Voter1(_name,_age,_gender,_ipfsAddress,_ipfsAge,_ipfsProfile);\n        \n    }\n        \n\n\n}\n",
  "sourcePath": "/home/devansh/Documents/BlockChain/EVoting/Source code/Voters/contracts/Voters.sol",
  "compiler": {
    "name": "solc",
    "version": "0.4.24+commit.e67f0147.Emscripten.clang"
  },
  "schemaVersion": "2.0.1",
  "updatedAt": "2018-09-21T11:27:47.726Z"
}