{
  "contractName": "Candidate",
  "abi": [
    {
      "constant": true,
      "inputs": [],
      "name": "candidatesCount",
      "outputs": [
        {
          "name": "",
          "type": "uint256"
        }
      ],
      "payable": false,
      "stateMutability": "view",
      "type": "function"
    },
    {
      "constant": true,
      "inputs": [
        {
          "name": "",
          "type": "uint256"
        }
      ],
      "name": "candidates",
      "outputs": [
        {
          "name": "id",
          "type": "uint256"
        },
        {
          "name": "name",
          "type": "string"
        },
        {
          "name": "age",
          "type": "uint256"
        },
        {
          "name": "voterId",
          "type": "string"
        },
        {
          "name": "aadhar",
          "type": "uint256"
        },
        {
          "name": "criminalRecord",
          "type": "bool"
        },
        {
          "name": "itr",
          "type": "bool"
        }
      ],
      "payable": false,
      "stateMutability": "view",
      "type": "function"
    },
    {
      "constant": true,
      "inputs": [
        {
          "name": "",
          "type": "address"
        }
      ],
      "name": "addedCandidates",
      "outputs": [
        {
          "name": "",
          "type": "bool"
        }
      ],
      "payable": false,
      "stateMutability": "view",
      "type": "function"
    },
    {
      "inputs": [],
      "payable": false,
      "stateMutability": "nonpayable",
      "type": "constructor"
    },
    {
      "constant": false,
      "inputs": [
        {
          "name": "_name",
          "type": "string"
        },
        {
          "name": "_age",
          "type": "uint256"
        },
        {
          "name": "_voterId",
          "type": "string"
        },
        {
          "name": "_aadhar",
          "type": "uint256"
        },
        {
          "name": "_criminalRecord",
          "type": "bool"
        },
        {
          "name": "_itr",
          "type": "bool"
        }
      ],
      "name": "addCandidate",
      "outputs": [
        {
          "name": "",
          "type": "bool"
        }
      ],
      "payable": false,
      "stateMutability": "nonpayable",
      "type": "function"
    }
  ],
  "bytecode": "0x608060405234801561001057600080fd5b5061009c6040805190810160405280600b81526020017f43616e6469646174652031000000000000000000000000000000000000000000815250601a6040805190810160405280600981526020017f7235746374767579670000000000000000000000000000000000000000000000815250611558600180610130640100000000026401000000009004565b5061012a6040805190810160405280600b81526020017f43616e6469646174652032000000000000000000000000000000000000000000815250601c6040805190810160405280601081526020017f72646667637476756664676466677967000000000000000000000000000000008152506333826ccc600180610130640100000000026401000000009004565b506102f6565b600082801561013c5750815b151561014757600080fd5b60026000815480929190600101919050555060e060405190810160405280600254815260200188815260200187815260200186815260200185815260200184151581526020018315158152506001600060025481526020019081526020016000206000820151816000015560208201518160010190805190602001906101ce929190610251565b506040820151816002015560608201518160030190805190602001906101f5929190610251565b506080820151816004015560a08201518160050160006101000a81548160ff02191690831515021790555060c08201518160050160016101000a81548160ff021916908315150217905550905050600190509695505050505050565b828054600181600116156101000203166002900490600052602060002090601f016020900481019282601f1061029257805160ff19168380011785556102c0565b828001600101855582156102c0579182015b828111156102bf5782518255916020019190600101906102a4565b5b5090506102cd91906102d1565b5090565b6102f391905b808211156102ef5760008160009055506001016102d7565b5090565b90565b6106c1806103056000396000f300608060405260043610610062576000357c0100000000000000000000000000000000000000000000000000000000900463ffffffff1680632d35a8a2146100675780633477ee2e146100925780635f80edf6146101cf5780636f60fb5c1461022a575b600080fd5b34801561007357600080fd5b5061007c61031d565b6040518082815260200191505060405180910390f35b34801561009e57600080fd5b506100bd60048036038101908080359060200190929190505050610323565b6040518088815260200180602001878152602001806020018681526020018515151515815260200184151515158152602001838103835289818151815260200191508051906020019080838360005b8381101561012757808201518184015260208101905061010c565b50505050905090810190601f1680156101545780820380516001836020036101000a031916815260200191505b50838103825287818151815260200191508051906020019080838360005b8381101561018d578082015181840152602081019050610172565b50505050905090810190601f1680156101ba5780820380516001836020036101000a031916815260200191505b50995050505050505050505060405180910390f35b3480156101db57600080fd5b50610210600480360381019080803573ffffffffffffffffffffffffffffffffffffffff1690602001909291905050506104af565b604051808215151515815260200191505060405180910390f35b34801561023657600080fd5b50610303600480360381019080803590602001908201803590602001908080601f016020809104026020016040519081016040528093929190818152602001838380828437820191505050505050919291929080359060200190929190803590602001908201803590602001908080601f0160208091040260200160405190810160405280939291908181526020018383808284378201915050505050509192919290803590602001909291908035151590602001909291908035151590602001909291905050506104cf565b604051808215151515815260200191505060405180910390f35b60025481565b6001602052806000526040600020600091509050806000015490806001018054600181600116156101000203166002900480601f0160208091040260200160405190810160405280929190818152602001828054600181600116156101000203166002900480156103d55780601f106103aa576101008083540402835291602001916103d5565b820191906000526020600020905b8154815290600101906020018083116103b857829003601f168201915b505050505090806002015490806003018054600181600116156101000203166002900480601f0160208091040260200160405190810160405280929190818152602001828054600181600116156101000203166002900480156104795780601f1061044e57610100808354040283529160200191610479565b820191906000526020600020905b81548152906001019060200180831161045c57829003601f168201915b5050505050908060040154908060050160009054906101000a900460ff16908060050160019054906101000a900460ff16905087565b60006020528060005260406000206000915054906101000a900460ff1681565b60008280156104db5750815b15156104e657600080fd5b60026000815480929190600101919050555060e0604051908101604052806002548152602001888152602001878152602001868152602001858152602001841515815260200183151581525060016000600254815260200190815260200160002060008201518160000155602082015181600101908051906020019061056d9291906105f0565b506040820151816002015560608201518160030190805190602001906105949291906105f0565b506080820151816004015560a08201518160050160006101000a81548160ff02191690831515021790555060c08201518160050160016101000a81548160ff021916908315150217905550905050600190509695505050505050565b828054600181600116156101000203166002900490600052602060002090601f016020900481019282601f1061063157805160ff191683800117855561065f565b8280016001018555821561065f579182015b8281111561065e578251825591602001919060010190610643565b5b50905061066c9190610670565b5090565b61069291905b8082111561068e576000816000905550600101610676565b5090565b905600a165627a7a7230582019cd105ab842f053f66352fb4676de9b51fa969250e20f22d7d8fac909906b000029",
  "source": "pragma solidity ^0.4.2;\r\n\r\ncontract Candidate{\r\n    // Model a Candidate\r\n    struct Candidate1 {\r\n        uint id;\r\n        string name;\r\n        uint age;\r\n        string voterId;\r\n        uint aadhar;\r\n        bool criminalRecord;\r\n        bool itr;\r\n    }\r\n\r\n    // Store accounts that have voted\r\n   // mapping(address => bool) public voters;\r\n    // Store Candidates\r\n    // Fetch Candidate\r\n\r\n    mapping(address => bool) public addedCandidates;\r\n\r\n    mapping(uint => Candidate1) public candidates;       //declaring it public gives us a getter function by default\r\n    // Store Candidates Count\r\n    uint public candidatesCount;\r\n\r\n    // voted event\r\n    /*event addedEvent (\r\n        uint indexed _candidateid\r\n    );*/\r\n\r\n    function Candidate () public {\r\n        addCandidate(\"Candidate 1\", 26, \"r5tctvuyg\", 5464, true, true);\r\n        addCandidate(\"Candidate 2\", 28, \"rdfgctvufdgdfgyg\", 864185548, true, true);\r\n    }\r\n\r\n    function addCandidate (string _name, uint _age, string _voterId, uint _aadhar, bool _criminalRecord, bool _itr) public returns (bool){          //available only to contract, not other accounts\r\n        require(_criminalRecord && _itr);\r\n        candidatesCount ++;\r\n        candidates[candidatesCount] = Candidate1(candidatesCount, _name, _age, _voterId, _aadhar, _criminalRecord, _itr);\r\n        return true;\r\n    }\r\n\r\n    // function setStore(string _value) public {\r\n    //     aadhar = _value;\r\n    // }\r\n\r\n    // function getAadhar() public view returns (string){\r\n    //     return Candidate1.aadhar.toString();\r\n    // }\r\n\r\n    /*function isCandidate (uint _aadhar) public returns (bool) {      //solidity allows sending meta data, msg.sender gives the account from which the function call is sent\r\n        // trigger voted event\r\n        uint flag=1;\r\n        uint temp2 = _aadhar;\r\n        for(uint i=1;i<=candidatesCount;i++)\r\n        {\r\n            uint temp = candidates[i].aadhar;\r\n            if(temp == temp2)\r\n            {\r\n                flag=0;\r\n            }\r\n        }\r\n        if(flag==1)\r\n        {\r\n           return true;\r\n        }\r\n        else{\r\n            return false;\r\n        }*/\r\n\r\n        /*function add (uint _candidateId) public {      //solidity allows sending meta data, msg.sender gives the account from which the function call is sent\r\n        // require that they haven't voted before\r\n        require(!candidates[msg.sender]);\r\n\r\n        // require a valid candidate\r\n        require(_candidateId > 0 && _candidateId <= candidatesCount);\r\n\r\n        // record that voter has voted\r\n        candidates[msg.sender] = true;\r\n\r\n        // update candidate vote Count\r\n        candidates[_candidateId].voteCount ++;\r\n\r\n        // trigger voted event\r\n        addedEvent(_candidateId);\r\n    }*/\r\n\r\n    }\r\n",
  "sourcePath": "C:\\Users\\HP\\Downloads\\EVoting\\Source code\\Candidate\\contracts\\Candidate.sol",
  "compiler": {
    "name": "solc",
    "version": "0.4.24+commit.e67f0147.Emscripten.clang"
  },
  "schemaVersion": "2.0.1",
  "updatedAt": "2018-09-22T02:47:59.125Z"
}